{
  "contractName": "Lease",
  "abi": [
    {
      "constant": true,
      "inputs": [
        {
          "name": "interfaceId",
          "type": "bytes4"
        }
      ],
      "name": "supportsInterface",
      "outputs": [
        {
          "name": "",
          "type": "bool"
        }
      ],
      "payable": false,
      "stateMutability": "view",
      "type": "function",
      "signature": "0x01ffc9a7"
    },
    {
      "constant": true,
      "inputs": [],
      "name": "name",
      "outputs": [
        {
          "name": "",
          "type": "string"
        }
      ],
      "payable": false,
      "stateMutability": "view",
      "type": "function",
      "signature": "0x06fdde03"
    },
    {
      "constant": true,
      "inputs": [
        {
          "name": "tokenId",
          "type": "uint256"
        }
      ],
      "name": "getApproved",
      "outputs": [
        {
          "name": "",
          "type": "address"
        }
      ],
      "payable": false,
      "stateMutability": "view",
      "type": "function",
      "signature": "0x081812fc"
    },
    {
      "constant": false,
      "inputs": [
        {
          "name": "to",
          "type": "address"
        },
        {
          "name": "tokenId",
          "type": "uint256"
        }
      ],
      "name": "approve",
      "outputs": [],
      "payable": false,
      "stateMutability": "nonpayable",
      "type": "function",
      "signature": "0x095ea7b3"
    },
    {
      "constant": true,
      "inputs": [],
      "name": "totalSupply",
      "outputs": [
        {
          "name": "",
          "type": "uint256"
        }
      ],
      "payable": false,
      "stateMutability": "view",
      "type": "function",
      "signature": "0x18160ddd"
    },
    {
      "constant": false,
      "inputs": [
        {
          "name": "from",
          "type": "address"
        },
        {
          "name": "to",
          "type": "address"
        },
        {
          "name": "tokenId",
          "type": "uint256"
        }
      ],
      "name": "transferFrom",
      "outputs": [],
      "payable": false,
      "stateMutability": "nonpayable",
      "type": "function",
      "signature": "0x23b872dd"
    },
    {
      "constant": true,
      "inputs": [
        {
          "name": "owner",
          "type": "address"
        },
        {
          "name": "index",
          "type": "uint256"
        }
      ],
      "name": "tokenOfOwnerByIndex",
      "outputs": [
        {
          "name": "",
          "type": "uint256"
        }
      ],
      "payable": false,
      "stateMutability": "view",
      "type": "function",
      "signature": "0x2f745c59"
    },
    {
      "constant": false,
      "inputs": [
        {
          "name": "from",
          "type": "address"
        },
        {
          "name": "to",
          "type": "address"
        },
        {
          "name": "tokenId",
          "type": "uint256"
        }
      ],
      "name": "safeTransferFrom",
      "outputs": [],
      "payable": false,
      "stateMutability": "nonpayable",
      "type": "function",
      "signature": "0x42842e0e"
    },
    {
      "constant": true,
      "inputs": [
        {
          "name": "index",
          "type": "uint256"
        }
      ],
      "name": "tokenByIndex",
      "outputs": [
        {
          "name": "",
          "type": "uint256"
        }
      ],
      "payable": false,
      "stateMutability": "view",
      "type": "function",
      "signature": "0x4f6ccce7"
    },
    {
      "constant": true,
      "inputs": [
        {
          "name": "tokenId",
          "type": "uint256"
        }
      ],
      "name": "ownerOf",
      "outputs": [
        {
          "name": "",
          "type": "address"
        }
      ],
      "payable": false,
      "stateMutability": "view",
      "type": "function",
      "signature": "0x6352211e"
    },
    {
      "constant": true,
      "inputs": [
        {
          "name": "owner",
          "type": "address"
        }
      ],
      "name": "balanceOf",
      "outputs": [
        {
          "name": "",
          "type": "uint256"
        }
      ],
      "payable": false,
      "stateMutability": "view",
      "type": "function",
      "signature": "0x70a08231"
    },
    {
      "constant": true,
      "inputs": [],
      "name": "symbol",
      "outputs": [
        {
          "name": "",
          "type": "string"
        }
      ],
      "payable": false,
      "stateMutability": "view",
      "type": "function",
      "signature": "0x95d89b41"
    },
    {
      "constant": false,
      "inputs": [
        {
          "name": "to",
          "type": "address"
        },
        {
          "name": "approved",
          "type": "bool"
        }
      ],
      "name": "setApprovalForAll",
      "outputs": [],
      "payable": false,
      "stateMutability": "nonpayable",
      "type": "function",
      "signature": "0xa22cb465"
    },
    {
      "constant": false,
      "inputs": [
        {
          "name": "from",
          "type": "address"
        },
        {
          "name": "to",
          "type": "address"
        },
        {
          "name": "tokenId",
          "type": "uint256"
        },
        {
          "name": "_data",
          "type": "bytes"
        }
      ],
      "name": "safeTransferFrom",
      "outputs": [],
      "payable": false,
      "stateMutability": "nonpayable",
      "type": "function",
      "signature": "0xb88d4fde"
    },
    {
      "constant": true,
      "inputs": [
        {
          "name": "tokenId",
          "type": "uint256"
        }
      ],
      "name": "tokenURI",
      "outputs": [
        {
          "name": "",
          "type": "string"
        }
      ],
      "payable": false,
      "stateMutability": "view",
      "type": "function",
      "signature": "0xc87b56dd"
    },
    {
      "constant": true,
      "inputs": [
        {
          "name": "owner",
          "type": "address"
        },
        {
          "name": "operator",
          "type": "address"
        }
      ],
      "name": "isApprovedForAll",
      "outputs": [
        {
          "name": "",
          "type": "bool"
        }
      ],
      "payable": false,
      "stateMutability": "view",
      "type": "function",
      "signature": "0xe985e9c5"
    },
    {
      "inputs": [],
      "payable": true,
      "stateMutability": "payable",
      "type": "constructor",
      "signature": "constructor"
    },
    {
      "anonymous": false,
      "inputs": [
        {
          "indexed": true,
          "name": "from",
          "type": "address"
        },
        {
          "indexed": true,
          "name": "to",
          "type": "address"
        },
        {
          "indexed": true,
          "name": "tokenId",
          "type": "uint256"
        }
      ],
      "name": "Transfer",
      "type": "event",
      "signature": "0xddf252ad1be2c89b69c2b068fc378daa952ba7f163c4a11628f55a4df523b3ef"
    },
    {
      "anonymous": false,
      "inputs": [
        {
          "indexed": true,
          "name": "owner",
          "type": "address"
        },
        {
          "indexed": true,
          "name": "approved",
          "type": "address"
        },
        {
          "indexed": true,
          "name": "tokenId",
          "type": "uint256"
        }
      ],
      "name": "Approval",
      "type": "event",
      "signature": "0x8c5be1e5ebec7d5bd14f71427d1e84f3dd0314c0f7b2291e5b200ac8c7c3b925"
    },
    {
      "anonymous": false,
      "inputs": [
        {
          "indexed": true,
          "name": "owner",
          "type": "address"
        },
        {
          "indexed": true,
          "name": "operator",
          "type": "address"
        },
        {
          "indexed": false,
          "name": "approved",
          "type": "bool"
        }
      ],
      "name": "ApprovalForAll",
      "type": "event",
      "signature": "0x17307eab39ab6107e8899845ad3d59bd9653f200f220920489ca2b5937696c31"
    },
    {
      "constant": true,
      "inputs": [],
      "name": "balance",
      "outputs": [
        {
          "name": "",
          "type": "uint256"
        }
      ],
      "payable": false,
      "stateMutability": "view",
      "type": "function",
      "signature": "0xb69ef8a8"
    },
    {
      "constant": true,
      "inputs": [
        {
          "name": "tokenId",
          "type": "uint256"
        }
      ],
      "name": "canPayToOwner",
      "outputs": [
        {
          "name": "",
          "type": "bool"
        }
      ],
      "payable": false,
      "stateMutability": "view",
      "type": "function",
      "signature": "0x253199a9"
    },
    {
      "constant": false,
      "inputs": [],
      "name": "depositMoney",
      "outputs": [],
      "payable": true,
      "stateMutability": "payable",
      "type": "function",
      "signature": "0x16c05aa2"
    },
    {
      "constant": false,
      "inputs": [],
      "name": "payToOwner",
      "outputs": [],
      "payable": false,
      "stateMutability": "nonpayable",
      "type": "function",
      "signature": "0xa25e402f"
    },
    {
      "constant": false,
      "inputs": [
        {
          "name": "_tokenURI",
          "type": "string"
        },
        {
          "name": "irent",
          "type": "uint256"
        }
      ],
      "name": "mintRoom",
      "outputs": [
        {
          "name": "",
          "type": "uint256"
        }
      ],
      "payable": false,
      "stateMutability": "nonpayable",
      "type": "function",
      "signature": "0x0ad7b5e5"
    },
    {
      "constant": false,
      "inputs": [
        {
          "name": "to",
          "type": "address"
        },
        {
          "name": "newTokenId",
          "type": "uint256"
        }
      ],
      "name": "ownerApprove",
      "outputs": [],
      "payable": false,
      "stateMutability": "nonpayable",
      "type": "function",
      "signature": "0x029d1ecd"
    },
    {
      "constant": true,
      "inputs": [
        {
          "name": "buyer",
          "type": "address"
        }
      ],
      "name": "checkDeposit",
      "outputs": [
        {
          "name": "",
          "type": "uint256"
        }
      ],
      "payable": false,
      "stateMutability": "view",
      "type": "function",
      "signature": "0xadf75a69"
    },
    {
      "constant": true,
      "inputs": [
        {
          "name": "tokenId",
          "type": "uint256"
        }
      ],
      "name": "checkApproved",
      "outputs": [
        {
          "name": "",
          "type": "bool"
        }
      ],
      "payable": false,
      "stateMutability": "view",
      "type": "function",
      "signature": "0xaf3be4d8"
    },
    {
      "constant": true,
      "inputs": [
        {
          "name": "owner",
          "type": "address"
        }
      ],
      "name": "getOwnerTokens",
      "outputs": [
        {
          "name": "",
          "type": "uint256[]"
        }
      ],
      "payable": false,
      "stateMutability": "view",
      "type": "function",
      "signature": "0xd63d4af0"
    },
    {
      "constant": false,
      "inputs": [
        {
          "name": "to",
          "type": "address"
        },
        {
          "name": "tokenId",
          "type": "uint256"
        }
      ],
      "name": "ownerClearApprove",
      "outputs": [],
      "payable": false,
      "stateMutability": "nonpayable",
      "type": "function",
      "signature": "0xb5a5c52a"
    }
  ],
  "bytecode": "0x60806040526040805190810160405280600881526020017f4c457468526f6f6d0000000000000000000000000000000000000000000000008152506040805190810160405280600381526020017f4c455200000000000000000000000000000000000000000000000000000000008152508181620000af6301ffc9a77c010000000000000000000000000000000000000000000000000000000002620001a2640100000000026401000000009004565b620000ec6380ac58cd7c010000000000000000000000000000000000000000000000000000000002620001a2640100000000026401000000009004565b6200012963780e9d637c010000000000000000000000000000000000000000000000000000000002620001a2640100000000026401000000009004565b81600990805190602001906200014192919062000260565b5080600a90805190602001906200015a92919062000260565b5062000198635b5e139f7c010000000000000000000000000000000000000000000000000000000002620001a2640100000000026401000000009004565b505050506200030f565b63ffffffff7c010000000000000000000000000000000000000000000000000000000002817bffffffffffffffffffffffffffffffffffffffffffffffffffffffff191614151515620001f457600080fd5b6001600080837bffffffffffffffffffffffffffffffffffffffffffffffffffffffff19167bffffffffffffffffffffffffffffffffffffffffffffffffffffffff1916815260200190815260200160002060006101000a81548160ff02191690831515021790555050565b828054600181600116156101000203166002900490600052602060002090601f016020900481019282601f10620002a357805160ff1916838001178555620002d4565b82800160010185558215620002d4579182015b82811115620002d3578251825591602001919060010190620002b6565b5b509050620002e39190620002e7565b5090565b6200030c91905b8082111562000308576000816000905550600101620002ee565b5090565b90565b612911806200031f6000396000f3fe60806040526004361061019e576000357c0100000000000000000000000000000000000000000000000000000000900480636352211e116100ee578063af3be4d8116100a7578063b88d4fde11610081578063b88d4fde14610a1a578063c87b56dd14610b2c578063d63d4af014610be0578063e985e9c514610c865761019e565b8063af3be4d814610941578063b5a5c52a14610994578063b69ef8a8146109ef5761019e565b80636352211e146106f857806370a082311461077357806395d89b41146107d8578063a22cb46514610868578063a25e402f146108c5578063adf75a69146108dc5761019e565b806316c05aa21161015b578063253199a911610135578063253199a91461056c5780632f745c59146105bf57806342842e0e1461062e5780634f6ccce7146106a95761019e565b806316c05aa2146104bc57806318160ddd146104c657806323b872dd146104f15761019e565b806301ffc9a7146101a3578063029d1ecd1461021557806306fdde0314610270578063081812fc14610300578063095ea7b31461037b5780630ad7b5e5146103d6575b600080fd5b3480156101af57600080fd5b506101fb600480360360208110156101c657600080fd5b8101908080357bffffffffffffffffffffffffffffffffffffffffffffffffffffffff19169060200190929190505050610d0f565b604051808215151515815260200191505060405180910390f35b34801561022157600080fd5b5061026e6004803603604081101561023857600080fd5b81019080803573ffffffffffffffffffffffffffffffffffffffff16906020019092919080359060200190929190505050610d76565b005b34801561027c57600080fd5b50610285610dfb565b6040518080602001828103825283818151815260200191508051906020019080838360005b838110156102c55780820151818401526020810190506102aa565b50505050905090810190601f1680156102f25780820380516001836020036101000a031916815260200191505b509250505060405180910390f35b34801561030c57600080fd5b506103396004803603602081101561032357600080fd5b8101908080359060200190929190505050610e9d565b604051808273ffffffffffffffffffffffffffffffffffffffff1673ffffffffffffffffffffffffffffffffffffffff16815260200191505060405180910390f35b34801561038757600080fd5b506103d46004803603604081101561039e57600080fd5b81019080803573ffffffffffffffffffffffffffffffffffffffff16906020019092919080359060200190929190505050610eee565b005b3480156103e257600080fd5b506104a6600480360360408110156103f957600080fd5b810190808035906020019064010000000081111561041657600080fd5b82018360208201111561042857600080fd5b8035906020019184600183028401116401000000008311171561044a57600080fd5b91908080601f016020809104026020016040519081016040528093929190818152602001838380828437600081840152601f19601f82011690508083019250505050505050919291929080359060200190929190505050611033565b6040518082815260200191505060405180910390f35b6104c46110e2565b005b3480156104d257600080fd5b506104db61116d565b6040518082815260200191505060405180910390f35b3480156104fd57600080fd5b5061056a6004803603606081101561051457600080fd5b81019080803573ffffffffffffffffffffffffffffffffffffffff169060200190929190803573ffffffffffffffffffffffffffffffffffffffff1690602001909291908035906020019092919050505061117a565b005b34801561057857600080fd5b506105a56004803603602081101561058f57600080fd5b810190808035906020019092919050505061119f565b604051808215151515815260200191505060405180910390f35b3480156105cb57600080fd5b50610618600480360360408110156105e257600080fd5b81019080803573ffffffffffffffffffffffffffffffffffffffff169060200190929190803590602001909291905050506111d4565b6040518082815260200191505060405180910390f35b34801561063a57600080fd5b506106a76004803603606081101561065157600080fd5b81019080803573ffffffffffffffffffffffffffffffffffffffff169060200190929190803573ffffffffffffffffffffffffffffffffffffffff1690602001909291908035906020019092919050505061124b565b005b3480156106b557600080fd5b506106e2600480360360208110156106cc57600080fd5b810190808035906020019092919050505061126c565b6040518082815260200191505060405180910390f35b34801561070457600080fd5b506107316004803603602081101561071b57600080fd5b81019080803590602001909291905050506112a4565b604051808273ffffffffffffffffffffffffffffffffffffffff1673ffffffffffffffffffffffffffffffffffffffff16815260200191505060405180910390f35b34801561077f57600080fd5b506107c26004803603602081101561079657600080fd5b81019080803573ffffffffffffffffffffffffffffffffffffffff169060200190929190505050611322565b6040518082815260200191505060405180910390f35b3480156107e457600080fd5b506107ed6113a6565b6040518080602001828103825283818151815260200191508051906020019080838360005b8381101561082d578082015181840152602081019050610812565b50505050905090810190601f16801561085a5780820380516001836020036101000a031916815260200191505b509250505060405180910390f35b34801561087457600080fd5b506108c36004803603604081101561088b57600080fd5b81019080803573ffffffffffffffffffffffffffffffffffffffff169060200190929190803515159060200190929190505050611448565b005b3480156108d157600080fd5b506108da611584565b005b3480156108e857600080fd5b5061092b600480360360208110156108ff57600080fd5b81019080803573ffffffffffffffffffffffffffffffffffffffff16906020019092919050505061186d565b6040518082815260200191505060405180910390f35b34801561094d57600080fd5b5061097a6004803603602081101561096457600080fd5b81019080803590602001909291905050506118b6565b604051808215151515815260200191505060405180910390f35b3480156109a057600080fd5b506109ed600480360360408110156109b757600080fd5b81019080803573ffffffffffffffffffffffffffffffffffffffff169060200190929190803590602001909291905050506118e0565b005b3480156109fb57600080fd5b50610a046119a4565b6040518082815260200191505060405180910390f35b348015610a2657600080fd5b50610b2a60048036036080811015610a3d57600080fd5b81019080803573ffffffffffffffffffffffffffffffffffffffff169060200190929190803573ffffffffffffffffffffffffffffffffffffffff1690602001909291908035906020019092919080359060200190640100000000811115610aa457600080fd5b820183602082011115610ab657600080fd5b80359060200191846001830284011164010000000083111715610ad857600080fd5b91908080601f016020809104026020016040519081016040528093929190818152602001838380828437600081840152601f19601f8201169050808301925050505050505091929192905050506119eb565b005b348015610b3857600080fd5b50610b6560048036036020811015610b4f57600080fd5b8101908080359060200190929190505050611a13565b6040518080602001828103825283818151815260200191508051906020019080838360005b83811015610ba5578082015181840152602081019050610b8a565b50505050905090810190601f168015610bd25780820380516001836020036101000a031916815260200191505b509250505060405180910390f35b348015610bec57600080fd5b50610c2f60048036036020811015610c0357600080fd5b81019080803573ffffffffffffffffffffffffffffffffffffffff169060200190929190505050611adc565b6040518080602001828103825283818151815260200191508051906020019060200280838360005b83811015610c72578082015181840152602081019050610c57565b505050509050019250505060405180910390f35b348015610c9257600080fd5b50610cf560048036036040811015610ca957600080fd5b81019080803573ffffffffffffffffffffffffffffffffffffffff169060200190929190803573ffffffffffffffffffffffffffffffffffffffff169060200190929190505050611b42565b604051808215151515815260200191505060405180910390f35b6000806000837bffffffffffffffffffffffffffffffffffffffffffffffffffffffff19167bffffffffffffffffffffffffffffffffffffffffffffffffffffffff1916815260200190815260200160002060009054906101000a900460ff169050919050565b3373ffffffffffffffffffffffffffffffffffffffff16610d96826112a4565b73ffffffffffffffffffffffffffffffffffffffff16141515610db857600080fd5b610dc28282610eee565b610dcb81611bd6565b6001600c600083815260200190815260200160002060006101000a81548160ff0219169083151502179055505050565b606060098054600181600116156101000203166002900480601f016020809104026020016040519081016040528092919081815260200182805460018160011615610100020316600290048015610e935780601f10610e6857610100808354040283529160200191610e93565b820191906000526020600020905b815481529060010190602001808311610e7657829003601f168201915b5050505050905090565b6000610ea882611bf1565b1515610eb357600080fd5b6002600083815260200190815260200160002060009054906101000a900473ffffffffffffffffffffffffffffffffffffffff169050919050565b6000610ef9826112a4565b90508073ffffffffffffffffffffffffffffffffffffffff168373ffffffffffffffffffffffffffffffffffffffff1614151515610f3657600080fd5b8073ffffffffffffffffffffffffffffffffffffffff163373ffffffffffffffffffffffffffffffffffffffff161480610f765750610f758133611b42565b5b1515610f8157600080fd5b826002600084815260200190815260200160002060006101000a81548173ffffffffffffffffffffffffffffffffffffffff021916908373ffffffffffffffffffffffffffffffffffffffff160217905550818373ffffffffffffffffffffffffffffffffffffffff168273ffffffffffffffffffffffffffffffffffffffff167f8c5be1e5ebec7d5bd14f71427d1e84f3dd0314c0f7b2291e5b200ac8c7c3b92560405160405180910390a4505050565b60008073ffffffffffffffffffffffffffffffffffffffff163373ffffffffffffffffffffffffffffffffffffffff161415151561107057600080fd5b600061107a611c63565b90506110863382611c85565b6110908185611ca6565b6103e88302600f6000838152602001908152602001600020819055506000600c600083815260200190815260200160002060006101000a81548160ff0219169083151502179055508091505092915050565b600073ffffffffffffffffffffffffffffffffffffffff163373ffffffffffffffffffffffffffffffffffffffff161415151561111e57600080fd5b34600d60003373ffffffffffffffffffffffffffffffffffffffff1673ffffffffffffffffffffffffffffffffffffffff16815260200190815260200160002060008282540192505081905550565b6000600780549050905090565b6111843382611ce6565b151561118f57600080fd5b61119a838383611d7b565b505050565b60006111ca62278d00600e600085815260200190815260200160002054611d9f90919063ffffffff16565b4210159050919050565b60006111df83611322565b821015156111ec57600080fd5b600560008473ffffffffffffffffffffffffffffffffffffffff1673ffffffffffffffffffffffffffffffffffffffff1681526020019081526020016000208281548110151561123857fe5b9060005260206000200154905092915050565b61126783838360206040519081016040528060008152506119eb565b505050565b600061127661116d565b8210151561128357600080fd5b60078281548110151561129257fe5b90600052602060002001549050919050565b6000806001600084815260200190815260200160002060009054906101000a900473ffffffffffffffffffffffffffffffffffffffff169050600073ffffffffffffffffffffffffffffffffffffffff168173ffffffffffffffffffffffffffffffffffffffff161415151561131957600080fd5b80915050919050565b60008073ffffffffffffffffffffffffffffffffffffffff168273ffffffffffffffffffffffffffffffffffffffff161415151561135f57600080fd5b600360008373ffffffffffffffffffffffffffffffffffffffff1673ffffffffffffffffffffffffffffffffffffffff168152602001908152602001600020549050919050565b6060600a8054600181600116156101000203166002900480601f01602080910402602001604051908101604052809291908181526020018280546001816001161561010002031660029004801561143e5780601f106114135761010080835404028352916020019161143e565b820191906000526020600020905b81548152906001019060200180831161142157829003601f168201915b5050505050905090565b3373ffffffffffffffffffffffffffffffffffffffff168273ffffffffffffffffffffffffffffffffffffffff161415151561148357600080fd5b80600460003373ffffffffffffffffffffffffffffffffffffffff1673ffffffffffffffffffffffffffffffffffffffff16815260200190815260200160002060008473ffffffffffffffffffffffffffffffffffffffff1673ffffffffffffffffffffffffffffffffffffffff16815260200190815260200160002060006101000a81548160ff0219169083151502179055508173ffffffffffffffffffffffffffffffffffffffff163373ffffffffffffffffffffffffffffffffffffffff167f17307eab39ab6107e8899845ad3d59bd9653f200f220920489ca2b5937696c3183604051808215151515815260200191505060405180910390a35050565b606061158f33611dc0565b8054806020026020016040519081016040528092919081815260200182805480156115d957602002820191906000526020600020905b8154815260200190600101908083116115c5575b50505050509050600081511115156115f057600080fd5b600080905060008090505b8251811015611821576000838281518110151561161457fe5b906020019060200201519050600061162b82610e9d565b9050600073ffffffffffffffffffffffffffffffffffffffff168173ffffffffffffffffffffffffffffffffffffffff161415801561166f575061166e8261119f565b5b15611812576000600f60008481526020019081526020016000205490506000600e6000858152602001908152602001600020549050600062278d008242038115156116b657fe5b049050600083600d60008773ffffffffffffffffffffffffffffffffffffffff1673ffffffffffffffffffffffffffffffffffffffff1681526020019081526020016000205481151561170557fe5b049050818110151561175d5781840293506117418262278d0002600e600089815260200190815260200160002054611d9f90919063ffffffff16565b600e6000888152602001908152602001600020819055506117bb565b808402935061178d8162278d0002600e600089815260200190815260200160002054611d9f90919063ffffffff16565b600e60008881526020019081526020016000208190555060028183031015156117ba576117b986611e08565b5b5b838801975083600d60008773ffffffffffffffffffffffffffffffffffffffff1673ffffffffffffffffffffffffffffffffffffffff16815260200190815260200160002060008282540392505081905550505050505b505080806001019150506115fb565b503373ffffffffffffffffffffffffffffffffffffffff166108fc829081150290604051600060405180830381858888f19350505050158015611868573d6000803e3d6000fd5b505050565b6000600d60008373ffffffffffffffffffffffffffffffffffffffff1673ffffffffffffffffffffffffffffffffffffffff168152602001908152602001600020549050919050565b6000600c600083815260200190815260200160002060009054906101000a900460ff169050919050565b3373ffffffffffffffffffffffffffffffffffffffff16611900826112a4565b73ffffffffffffffffffffffffffffffffffffffff1614151561192257600080fd5b8173ffffffffffffffffffffffffffffffffffffffff1661194282610e9d565b73ffffffffffffffffffffffffffffffffffffffff1614151561196457600080fd5b60008090506119738183610eee565b6000600c600084815260200190815260200160002060006101000a81548160ff021916908315150217905550505050565b6000600d60003373ffffffffffffffffffffffffffffffffffffffff1673ffffffffffffffffffffffffffffffffffffffff16815260200190815260200160002054905090565b6119f684848461117a565b611a0284848484611e47565b1515611a0d57600080fd5b50505050565b6060611a1e82611bf1565b1515611a2957600080fd5b600b60008381526020019081526020016000208054600181600116156101000203166002900480601f016020809104026020016040519081016040528092919081815260200182805460018160011615610100020316600290048015611ad05780601f10611aa557610100808354040283529160200191611ad0565b820191906000526020600020905b815481529060010190602001808311611ab357829003601f168201915b50505050509050919050565b606080611ae883611dc0565b805480602002602001604051908101604052809291908181526020018280548015611b3257602002820191906000526020600020905b815481526020019060010190808311611b1e575b5050505050905080915050919050565b6000600460008473ffffffffffffffffffffffffffffffffffffffff1673ffffffffffffffffffffffffffffffffffffffff16815260200190815260200160002060008373ffffffffffffffffffffffffffffffffffffffff1673ffffffffffffffffffffffffffffffffffffffff16815260200190815260200160002060009054906101000a900460ff16905092915050565b42600e60008381526020019081526020016000208190555050565b6000806001600084815260200190815260200160002060009054906101000a900473ffffffffffffffffffffffffffffffffffffffff169050600073ffffffffffffffffffffffffffffffffffffffff168173ffffffffffffffffffffffffffffffffffffffff161415915050919050565b6000611c806001611c7261116d565b611d9f90919063ffffffff16565b905090565b611c8f828261206a565b611c998282612203565b611ca2816122ca565b5050565b611caf82611bf1565b1515611cba57600080fd5b80600b60008481526020019081526020016000209080519060200190611ce1929190612814565b505050565b600080611cf2836112a4565b90508073ffffffffffffffffffffffffffffffffffffffff168473ffffffffffffffffffffffffffffffffffffffff161480611d6157508373ffffffffffffffffffffffffffffffffffffffff16611d4984610e9d565b73ffffffffffffffffffffffffffffffffffffffff16145b80611d725750611d718185611b42565b5b91505092915050565b611d86838383612316565b611d90838261257b565b611d9a8282612203565b505050565b6000808284019050838110151515611db657600080fd5b8091505092915050565b6000600560008373ffffffffffffffffffffffffffffffffffffffff1673ffffffffffffffffffffffffffffffffffffffff1681526020019081526020016000209050919050565b6000809050611e178183610eee565b6000600c600084815260200190815260200160002060006101000a81548160ff0219169083151502179055505050565b6000611e688473ffffffffffffffffffffffffffffffffffffffff1661271f565b1515611e775760019050612062565b60008473ffffffffffffffffffffffffffffffffffffffff1663150b7a02338887876040518563ffffffff167c0100000000000000000000000000000000000000000000000000000000028152600401808573ffffffffffffffffffffffffffffffffffffffff1673ffffffffffffffffffffffffffffffffffffffff1681526020018473ffffffffffffffffffffffffffffffffffffffff1673ffffffffffffffffffffffffffffffffffffffff16815260200183815260200180602001828103825283818151815260200191508051906020019080838360005b83811015611f6e578082015181840152602081019050611f53565b50505050905090810190601f168015611f9b5780820380516001836020036101000a031916815260200191505b5095505050505050602060405180830381600087803b158015611fbd57600080fd5b505af1158015611fd1573d6000803e3d6000fd5b505050506040513d6020811015611fe757600080fd5b8101908080519060200190929190505050905063150b7a027c0100000000000000000000000000000000000000000000000000000000027bffffffffffffffffffffffffffffffffffffffffffffffffffffffff1916817bffffffffffffffffffffffffffffffffffffffffffffffffffffffff1916149150505b949350505050565b600073ffffffffffffffffffffffffffffffffffffffff168273ffffffffffffffffffffffffffffffffffffffff16141515156120a657600080fd5b6120af81611bf1565b1515156120bb57600080fd5b816001600083815260200190815260200160002060006101000a81548173ffffffffffffffffffffffffffffffffffffffff021916908373ffffffffffffffffffffffffffffffffffffffff1602179055506121606001600360008573ffffffffffffffffffffffffffffffffffffffff1673ffffffffffffffffffffffffffffffffffffffff16815260200190815260200160002054611d9f90919063ffffffff16565b600360008473ffffffffffffffffffffffffffffffffffffffff1673ffffffffffffffffffffffffffffffffffffffff16815260200190815260200160002081905550808273ffffffffffffffffffffffffffffffffffffffff16600073ffffffffffffffffffffffffffffffffffffffff167fddf252ad1be2c89b69c2b068fc378daa952ba7f163c4a11628f55a4df523b3ef60405160405180910390a45050565b600560008373ffffffffffffffffffffffffffffffffffffffff1673ffffffffffffffffffffffffffffffffffffffff168152602001908152602001600020805490506006600083815260200190815260200160002081905550600560008373ffffffffffffffffffffffffffffffffffffffff1673ffffffffffffffffffffffffffffffffffffffff1681526020019081526020016000208190806001815401808255809150509060018203906000526020600020016000909192909190915055505050565b6007805490506008600083815260200190815260200160002081905550600781908060018154018082558091505090600182039060005260206000200160009091929091909150555050565b8273ffffffffffffffffffffffffffffffffffffffff16612336826112a4565b73ffffffffffffffffffffffffffffffffffffffff1614151561235857600080fd5b600073ffffffffffffffffffffffffffffffffffffffff168273ffffffffffffffffffffffffffffffffffffffff161415151561239457600080fd5b61239d81612732565b6123f06001600360008673ffffffffffffffffffffffffffffffffffffffff1673ffffffffffffffffffffffffffffffffffffffff168152602001908152602001600020546127f290919063ffffffff16565b600360008573ffffffffffffffffffffffffffffffffffffffff1673ffffffffffffffffffffffffffffffffffffffff168152602001908152602001600020819055506124866001600360008573ffffffffffffffffffffffffffffffffffffffff1673ffffffffffffffffffffffffffffffffffffffff16815260200190815260200160002054611d9f90919063ffffffff16565b600360008473ffffffffffffffffffffffffffffffffffffffff1673ffffffffffffffffffffffffffffffffffffffff16815260200190815260200160002081905550816001600083815260200190815260200160002060006101000a81548173ffffffffffffffffffffffffffffffffffffffff021916908373ffffffffffffffffffffffffffffffffffffffff160217905550808273ffffffffffffffffffffffffffffffffffffffff168473ffffffffffffffffffffffffffffffffffffffff167fddf252ad1be2c89b69c2b068fc378daa952ba7f163c4a11628f55a4df523b3ef60405160405180910390a4505050565b60006125d36001600560008673ffffffffffffffffffffffffffffffffffffffff1673ffffffffffffffffffffffffffffffffffffffff168152602001908152602001600020805490506127f290919063ffffffff16565b905060006006600084815260200190815260200160002054905081811415156126c6576000600560008673ffffffffffffffffffffffffffffffffffffffff1673ffffffffffffffffffffffffffffffffffffffff1681526020019081526020016000208381548110151561264457fe5b9060005260206000200154905080600560008773ffffffffffffffffffffffffffffffffffffffff1673ffffffffffffffffffffffffffffffffffffffff1681526020019081526020016000208381548110151561269e57fe5b9060005260206000200181905550816006600083815260200190815260200160002081905550505b600560008573ffffffffffffffffffffffffffffffffffffffff1673ffffffffffffffffffffffffffffffffffffffff1681526020019081526020016000208054809190600190036127189190612894565b5050505050565b600080823b905060008111915050919050565b600073ffffffffffffffffffffffffffffffffffffffff166002600083815260200190815260200160002060009054906101000a900473ffffffffffffffffffffffffffffffffffffffff1673ffffffffffffffffffffffffffffffffffffffff161415156127ef5760006002600083815260200190815260200160002060006101000a81548173ffffffffffffffffffffffffffffffffffffffff021916908373ffffffffffffffffffffffffffffffffffffffff1602179055505b50565b600082821115151561280357600080fd5b600082840390508091505092915050565b828054600181600116156101000203166002900490600052602060002090601f016020900481019282601f1061285557805160ff1916838001178555612883565b82800160010185558215612883579182015b82811115612882578251825591602001919060010190612867565b5b50905061289091906128c0565b5090565b8154818355818111156128bb578183600052602060002091820191016128ba91906128c0565b5b505050565b6128e291905b808211156128de5760008160009055506001016128c6565b5090565b9056fea165627a7a72305820900561741ec9cfb611fe82cff801de4ca7b0299e20f38ba1ebfa973afcf2cee40029",
  "source": "pragma solidity ^0.5.2;\n\nimport \"openzeppelin-solidity/contracts/token/ERC721/ERC721Full.sol\";\nimport \"openzeppelin-solidity/contracts/math/SafeMath.sol\";\n\n\ncontract Lease is ERC721Metadata, ERC721Full {\n    using SafeMath for uint256;\n\n    constructor() public payable\n    ERC721Full(\"LEthRoom\", \"LER\"){}\n\n    //uint256 private mintFee = 0.1 ether;\n\n    mapping(uint256 => bool) private tokenToBool;\n    mapping(address => uint) private deposit;\n    mapping(uint256 => uint) private paymentDay; //id =>\n    mapping(uint256 => uint) private rent; //id => rent finney\n\n    function balance() public view returns (uint) {\n      return deposit[msg.sender];\n    }\n\n    function initPaymentDay(uint256 tokenId) private {\n        paymentDay[tokenId] = block.timestamp;\n    }\n\n    function canPayToOwner(uint256 tokenId) public view returns (bool) {\n        return (block.timestamp >= paymentDay[tokenId].add(30 days));\n\n    }\n\n    function depositMoney() public payable {\n        require(msg.sender != address(0));\n        deposit[msg.sender] += msg.value;\n    }\n\n    function payToOwner() public {\n        uint256[] memory ownerRoomList = _tokensOfOwner(msg.sender);\n        require(ownerRoomList.length > 0);\n        uint totalPay = 0;\n\n        //roomId loop\n        for (uint i = 0; i< ownerRoomList.length; i++){\n            uint256 roomId = ownerRoomList[i];\n            address buyerAddress = getApproved(roomId);\n\n            //  30\n            if (buyerAddress != address(0) && canPayToOwner(roomId)){\n                uint irent = rent[roomId];//wei\n                uint ipaymentDay = paymentDay[roomId];\n\n                //\n                uint needPayTime = (block.timestamp - ipaymentDay) / (30 days);\n                uint canPayTime = deposit[buyerAddress] / irent;\n\n                //\n                if(canPayTime >= needPayTime){\n                  irent = irent * needPayTime;\n                  paymentDay[roomId] = paymentDay[roomId].add((30 days) * needPayTime);\n                }else{\n                  //\n                  irent = irent * canPayTime;\n                  paymentDay[roomId] = paymentDay[roomId].add((30 days) * canPayTime);\n                  //2\n                  if(needPayTime - canPayTime >= 2){ clearApproval(roomId); }\n                }\n\n                totalPay += irent;\n                deposit[buyerAddress] -= irent;\n            }\n        }\n\n        msg.sender.transfer(totalPay);\n    }\n\n    function mintRoom(string memory _tokenURI, uint irent) public returns(uint256){\n        require(msg.sender != address(0));\n        //require(deposit[msg.sender] >= mintFee);\n        uint256 newTokenId = _getNextTokenId();\n        _mint(msg.sender, newTokenId);\n        _setTokenURI(newTokenId, _tokenURI);\n        rent[newTokenId] = irent * 1000;\n        tokenToBool[newTokenId] = false;\n        return newTokenId;\n    }\n\n    function _getNextTokenId() private view returns (uint256) {\n        return totalSupply().add(1);\n    }\n\n    function ownerApprove(address to, uint256 newTokenId) public {\n      require(ownerOf(newTokenId) == msg.sender);\n      approve(to, newTokenId);\n      initPaymentDay(newTokenId);\n      tokenToBool[newTokenId] = true;\n    }\n    \n    function checkDeposit(address buyer) public view returns(uint256) {\n        return deposit[buyer];\n    }\n    \n    function checkApproved(uint256 tokenId) public view returns(bool){\n        return tokenToBool[tokenId];\n    }\n    \n    function getOwnerTokens(address owner) public view returns(uint256[] memory) {\n        uint256[] memory ownerRoomList = _tokensOfOwner(owner);\n        return ownerRoomList;\n    }\n\n    function clearApproval(uint256 tokenId) private {\n        address none = address(0);\n        approve(none, tokenId);\n        tokenToBool[tokenId] = false;\n    }\n    \n    function ownerClearApprove(address to, uint256 tokenId) public {\n        require(ownerOf(tokenId) == msg.sender);\n        require(getApproved(tokenId) == to);\n        address none = address(0);\n        approve(none, tokenId);\n        tokenToBool[tokenId] = false;\n    }\n\n}\n",
  "sourcePath": "/Users/banana/truffle/contracts/Lease.sol",
  "compiler": {
    "name": "solc",
    "version": "0.5.2+commit.1df8f40c.Emscripten.clang"
  },
  "schemaVersion": "3.0.2",
  "updatedAt": "2019-03-13T11:10:15.170Z",
  "devdoc": {
    "methods": {
      "approve(address,uint256)": {
        "details": "Approves another address to transfer the given token ID The zero address indicates there is no approved address. There can only be one approved address per token at a given time. Can only be called by the token owner or an approved operator.",
        "params": {
          "to": "address to be approved for the given token ID",
          "tokenId": "uint256 ID of the token to be approved"
        }
      },
      "balanceOf(address)": {
        "details": "Gets the balance of the specified address",
        "params": {
          "owner": "address to query the balance of"
        },
        "return": "uint256 representing the amount owned by the passed address"
      },
      "getApproved(uint256)": {
        "details": "Gets the approved address for a token ID, or zero if no address set Reverts if the token ID does not exist.",
        "params": {
          "tokenId": "uint256 ID of the token to query the approval of"
        },
        "return": "address currently approved for the given token ID"
      },
      "isApprovedForAll(address,address)": {
        "details": "Tells whether an operator is approved by a given owner",
        "params": {
          "operator": "operator address which you want to query the approval of",
          "owner": "owner address which you want to query the approval of"
        },
        "return": "bool whether the given operator is approved by the given owner"
      },
      "name()": {
        "details": "Gets the token name",
        "return": "string representing the token name"
      },
      "ownerOf(uint256)": {
        "details": "Gets the owner of the specified token ID",
        "params": {
          "tokenId": "uint256 ID of the token to query the owner of"
        },
        "return": "owner address currently marked as the owner of the given token ID"
      },
      "safeTransferFrom(address,address,uint256)": {
        "details": "Safely transfers the ownership of a given token ID to another address If the target address is a contract, it must implement `onERC721Received`, which is called upon a safe transfer, and return the magic value `bytes4(keccak256(\"onERC721Received(address,address,uint256,bytes)\"))`; otherwise, the transfer is reverted.     * Requires the msg sender to be the owner, approved, or operator",
        "params": {
          "from": "current owner of the token",
          "to": "address to receive the ownership of the given token ID",
          "tokenId": "uint256 ID of the token to be transferred"
        }
      },
      "safeTransferFrom(address,address,uint256,bytes)": {
        "details": "Safely transfers the ownership of a given token ID to another address If the target address is a contract, it must implement `onERC721Received`, which is called upon a safe transfer, and return the magic value `bytes4(keccak256(\"onERC721Received(address,address,uint256,bytes)\"))`; otherwise, the transfer is reverted. Requires the msg sender to be the owner, approved, or operator",
        "params": {
          "_data": "bytes data to send along with a safe transfer check",
          "from": "current owner of the token",
          "to": "address to receive the ownership of the given token ID",
          "tokenId": "uint256 ID of the token to be transferred"
        }
      },
      "setApprovalForAll(address,bool)": {
        "details": "Sets or unsets the approval of a given operator An operator is allowed to transfer all tokens of the sender on their behalf",
        "params": {
          "approved": "representing the status of the approval to be set",
          "to": "operator address to set the approval"
        }
      },
      "supportsInterface(bytes4)": {
        "details": "implement supportsInterface(bytes4) using a lookup table"
      },
      "symbol()": {
        "details": "Gets the token symbol",
        "return": "string representing the token symbol"
      },
      "tokenByIndex(uint256)": {
        "details": "Gets the token ID at a given index of all the tokens in this contract Reverts if the index is greater or equal to the total number of tokens",
        "params": {
          "index": "uint256 representing the index to be accessed of the tokens list"
        },
        "return": "uint256 token ID at the given index of the tokens list"
      },
      "tokenOfOwnerByIndex(address,uint256)": {
        "details": "Gets the token ID at a given index of the tokens list of the requested owner",
        "params": {
          "index": "uint256 representing the index to be accessed of the requested tokens list",
          "owner": "address owning the tokens list to be accessed"
        },
        "return": "uint256 token ID at the given index of the tokens list owned by the requested address"
      },
      "tokenURI(uint256)": {
        "details": "Returns an URI for a given token ID Throws if the token ID does not exist. May return an empty string.",
        "params": {
          "tokenId": "uint256 ID of the token to query"
        }
      },
      "totalSupply()": {
        "details": "Gets the total amount of tokens stored by the contract",
        "return": "uint256 representing the total amount of tokens"
      },
      "transferFrom(address,address,uint256)": {
        "details": "Transfers the ownership of a given token ID to another address Usage of this method is discouraged, use `safeTransferFrom` whenever possible Requires the msg sender to be the owner, approved, or operator",
        "params": {
          "from": "current owner of the token",
          "to": "address to receive the ownership of the given token ID",
          "tokenId": "uint256 ID of the token to be transferred"
        }
      }
    }
  },
  "userdoc": {
    "methods": {}
  }
}